{
  "contractName": "Lottery",
  "abi": [
    {
      "inputs": [],
      "stateMutability": "nonpayable",
      "type": "constructor"
    },
    {
      "inputs": [
        {
          "internalType": "uint256",
          "name": "",
          "type": "uint256"
        }
      ],
      "name": "participants",
      "outputs": [
        {
          "internalType": "address payable",
          "name": "",
          "type": "address"
        }
      ],
      "stateMutability": "view",
      "type": "function",
      "constant": true
    },
    {
      "inputs": [],
      "name": "winner",
      "outputs": [
        {
          "internalType": "address payable",
          "name": "",
          "type": "address"
        }
      ],
      "stateMutability": "view",
      "type": "function",
      "constant": true
    },
    {
      "stateMutability": "payable",
      "type": "receive",
      "payable": true
    },
    {
      "inputs": [],
      "name": "getBalance",
      "outputs": [
        {
          "internalType": "uint256",
          "name": "",
          "type": "uint256"
        }
      ],
      "stateMutability": "view",
      "type": "function",
      "constant": true
    },
    {
      "inputs": [],
      "name": "getWinner",
      "outputs": [],
      "stateMutability": "nonpayable",
      "type": "function"
    },
    {
      "inputs": [],
      "name": "allParticipants",
      "outputs": [
        {
          "internalType": "address payable[]",
          "name": "",
          "type": "address[]"
        }
      ],
      "stateMutability": "view",
      "type": "function",
      "constant": true
    }
  ],
  "bytecode": "0x608060405234801561001057600080fd5b5033600160006101000a81548173ffffffffffffffffffffffffffffffffffffffff021916908373ffffffffffffffffffffffffffffffffffffffff160217905550610ac2806100616000396000f3fe60806040526004361061004e5760003560e01c806312065fe01461012c57806335c1d349146101575780634f63c903146101945780638e7ea5b2146101bf578063dfbf53ae146101d657610127565b3661012757670de0b6b3a7640000341461006757600080fd5b600160009054906101000a900473ffffffffffffffffffffffffffffffffffffffff1673ffffffffffffffffffffffffffffffffffffffff163373ffffffffffffffffffffffffffffffffffffffff1614156100c257600080fd5b6000339080600181540180825580915050600190039060005260206000200160009091909190916101000a81548173ffffffffffffffffffffffffffffffffffffffff021916908373ffffffffffffffffffffffffffffffffffffffff160217905550005b600080fd5b34801561013857600080fd5b50610141610201565b60405161014e91906106d2565b60405180910390f35b34801561016357600080fd5b5061017e6004803603810190610179919061071e565b610299565b60405161018b919061078c565b60405180910390f35b3480156101a057600080fd5b506101a96102d8565b6040516101b69190610865565b60405180910390f35b3480156101cb57600080fd5b506101d4610366565b005b3480156101e257600080fd5b506101eb6105b2565b6040516101f8919061078c565b60405180910390f35b60003373ffffffffffffffffffffffffffffffffffffffff16600160009054906101000a900473ffffffffffffffffffffffffffffffffffffffff1673ffffffffffffffffffffffffffffffffffffffff1614610293576040517f08c379a000000000000000000000000000000000000000000000000000000000815260040161028a906108e4565b60405180910390fd5b47905090565b600081815481106102a957600080fd5b906000526020600020016000915054906101000a900473ffffffffffffffffffffffffffffffffffffffff1681565b6060600080548060200260200160405190810160405280929190818152602001828054801561035c57602002820191906000526020600020905b8160009054906101000a900473ffffffffffffffffffffffffffffffffffffffff1673ffffffffffffffffffffffffffffffffffffffff1681526020019060010190808311610312575b5050505050905090565b3373ffffffffffffffffffffffffffffffffffffffff16600160009054906101000a900473ffffffffffffffffffffffffffffffffffffffff1673ffffffffffffffffffffffffffffffffffffffff16146103f6576040517f08c379a00000000000000000000000000000000000000000000000000000000081526004016103ed906108e4565b60405180910390fd5b6003600080549050101561043f576040517f08c379a000000000000000000000000000000000000000000000000000000000815260040161043690610950565b60405180910390fd5b60006104496105d8565b9050600080805490508261045d919061099f565b905060008181548110610473576104726109d0565b5b9060005260206000200160009054906101000a900473ffffffffffffffffffffffffffffffffffffffff16600260006101000a81548173ffffffffffffffffffffffffffffffffffffffff021916908373ffffffffffffffffffffffffffffffffffffffff160217905550600260009054906101000a900473ffffffffffffffffffffffffffffffffffffffff1673ffffffffffffffffffffffffffffffffffffffff166108fc610522610201565b9081150290604051600060405180830381858888f1935050505015801561054d573d6000803e3d6000fd5b50600067ffffffffffffffff811115610569576105686109ff565b5b6040519080825280602002602001820160405280156105975781602001602082028036833780820191505090505b50600090805190602001906105ad929190610612565b505050565b600260009054906101000a900473ffffffffffffffffffffffffffffffffffffffff1681565b600044426000805490506040516020016105f493929190610a4f565b6040516020818303038152906040528051906020012060001c905090565b82805482825590600052602060002090810192821561068b579160200282015b8281111561068a5782518260006101000a81548173ffffffffffffffffffffffffffffffffffffffff021916908373ffffffffffffffffffffffffffffffffffffffff16021790555091602001919060010190610632565b5b509050610698919061069c565b5090565b5b808211156106b557600081600090555060010161069d565b5090565b6000819050919050565b6106cc816106b9565b82525050565b60006020820190506106e760008301846106c3565b92915050565b600080fd5b6106fb816106b9565b811461070657600080fd5b50565b600081359050610718816106f2565b92915050565b600060208284031215610734576107336106ed565b5b600061074284828501610709565b91505092915050565b600073ffffffffffffffffffffffffffffffffffffffff82169050919050565b60006107768261074b565b9050919050565b6107868161076b565b82525050565b60006020820190506107a1600083018461077d565b92915050565b600081519050919050565b600082825260208201905092915050565b6000819050602082019050919050565b6107dc8161076b565b82525050565b60006107ee83836107d3565b60208301905092915050565b6000602082019050919050565b6000610812826107a7565b61081c81856107b2565b9350610827836107c3565b8060005b8381101561085857815161083f88826107e2565b975061084a836107fa565b92505060018101905061082b565b5085935050505092915050565b6000602082019050818103600083015261087f8184610807565b905092915050565b600082825260208201905092915050565b7f4f6e6c79206f776e657220686176652061636365737300000000000000000000600082015250565b60006108ce601683610887565b91506108d982610898565b602082019050919050565b600060208201905081810360008301526108fd816108c1565b9050919050565b7f496e73756666696369656e74207061727469636970616e747300000000000000600082015250565b600061093a601983610887565b915061094582610904565b602082019050919050565b600060208201905081810360008301526109698161092d565b9050919050565b7f4e487b7100000000000000000000000000000000000000000000000000000000600052601260045260246000fd5b60006109aa826106b9565b91506109b5836106b9565b9250826109c5576109c4610970565b5b828206905092915050565b7f4e487b7100000000000000000000000000000000000000000000000000000000600052603260045260246000fd5b7f4e487b7100000000000000000000000000000000000000000000000000000000600052604160045260246000fd5b6000819050919050565b610a49610a44826106b9565b610a2e565b82525050565b6000610a5b8286610a38565b602082019150610a6b8285610a38565b602082019150610a7b8284610a38565b60208201915081905094935050505056fea2646970667358221220ef2d898d3f447b7eea330eee1a78bf37608ec54260d5cec6e8d5a6944414646164736f6c634300080b0033",
  "immutableReferences": {},
  "source": "//SPDX-License-Identifier: GPL-3.0\n\npragma solidity >=0.5.0 <0.9.0;\n\ncontract Lottery{\n    address payable[] public participants;\n    address manager;\n    address payable public winner;\n\n constructor()\n    {\n        manager=msg.sender; //global variable. this will assign the address \n        //of the account that deploys the contract to the manager variable.\n    }\n\n    receive() external payable{\n        require(msg.value == 1000000000000000000);\n        require(msg.sender != manager);\n        participants.push(payable(msg.sender));\n    }\n\n    function getBalance() public view returns(uint){\n        require(manager == msg.sender,\"Only owner have access\");\n        return address(this).balance;\n    }\n\n//get a random number\n    function random() internal view returns(uint){\n        return uint(keccak256(abi.encodePacked(block.difficulty,block.timestamp,participants.length)));\n    }\n\n    function getWinner() public {\n        require(manager==msg.sender,\"Only owner have access\");\n        require(participants.length>=3, \"Insufficient participants\");\n\n        uint win  = random();\n//take the remainder by deviding with the participants number so that get the index number in range\n        uint index = win%participants.length;\n        winner = participants[index];//select participants of that indexx as winner\n        winner.transfer(getBalance());//transfer the contract balance to winner\n        participants = new address payable[](0);//delete all the participants\n    }\n\n    function allParticipants() public view returns(address payable[] memory){\n        return participants;\n    }\n\n\n}",
  "sourcePath": "/Users/shekhshihabuddin/Desktop/my_lottery_dapp/Code/truffleapp/contracts/Lottery.sol",
  "compiler": {
    "name": "solc",
    "version": "0.8.11+commit.d7f03943.Emscripten.clang"
  },
  "schemaVersion": "3.4.14",
  "updatedAt": "2023-08-31T13:35:18.919Z",
  "networkType": "ethereum",
  "devdoc": {
    "kind": "dev",
    "methods": {},
    "version": 1
  },
  "userdoc": {
    "kind": "user",
    "methods": {},
    "version": 1
  }
}