{
  "contractName": "Lottery",
  "abi": [
    {
      "inputs": [],
      "stateMutability": "nonpayable",
      "type": "constructor"
    },
    {
      "inputs": [
        {
          "internalType": "uint256",
          "name": "",
          "type": "uint256"
        }
      ],
      "name": "participants",
      "outputs": [
        {
          "internalType": "address payable",
          "name": "",
          "type": "address"
        }
      ],
      "stateMutability": "view",
      "type": "function",
      "constant": true
    },
    {
      "inputs": [],
      "name": "winner",
      "outputs": [
        {
          "internalType": "address payable",
          "name": "",
          "type": "address"
        }
      ],
      "stateMutability": "view",
      "type": "function",
      "constant": true
    },
    {
      "stateMutability": "payable",
      "type": "receive",
      "payable": true
    },
    {
      "inputs": [],
      "name": "getBalance",
      "outputs": [
        {
          "internalType": "uint256",
          "name": "",
          "type": "uint256"
        }
      ],
      "stateMutability": "view",
      "type": "function",
      "constant": true
    },
    {
      "inputs": [],
      "name": "getWinner",
      "outputs": [],
      "stateMutability": "nonpayable",
      "type": "function"
    },
    {
      "inputs": [],
      "name": "allParticipants",
      "outputs": [
        {
          "internalType": "address payable[]",
          "name": "",
          "type": "address[]"
        }
      ],
      "stateMutability": "view",
      "type": "function",
      "constant": true
    }
  ],
  "bytecode": "0x608060405234801561001057600080fd5b5033600160006101000a81548173ffffffffffffffffffffffffffffffffffffffff021916908373ffffffffffffffffffffffffffffffffffffffff160217905550610b09806100616000396000f3fe60806040526004361061004e5760003560e01c806312065fe01461010757806335c1d349146101325780634f63c9031461016f5780638e7ea5b21461019a578063dfbf53ae146101b157610102565b3661010257670de0b6b3a7640000341461009d576040517f08c379a0000000000000000000000000000000000000000000000000000000008152600401610094906106f1565b60405180910390fd5b6000339080600181540180825580915050600190039060005260206000200160009091909190916101000a81548173ffffffffffffffffffffffffffffffffffffffff021916908373ffffffffffffffffffffffffffffffffffffffff160217905550005b600080fd5b34801561011357600080fd5b5061011c6101dc565b604051610129919061072a565b60405180910390f35b34801561013e57600080fd5b5061015960048036038101906101549190610776565b610274565b60405161016691906107e4565b60405180910390f35b34801561017b57600080fd5b506101846102b3565b60405161019191906108bd565b60405180910390f35b3480156101a657600080fd5b506101af610341565b005b3480156101bd57600080fd5b506101c661058d565b6040516101d391906107e4565b60405180910390f35b60003373ffffffffffffffffffffffffffffffffffffffff16600160009054906101000a900473ffffffffffffffffffffffffffffffffffffffff1673ffffffffffffffffffffffffffffffffffffffff161461026e576040517f08c379a00000000000000000000000000000000000000000000000000000000081526004016102659061092b565b60405180910390fd5b47905090565b6000818154811061028457600080fd5b906000526020600020016000915054906101000a900473ffffffffffffffffffffffffffffffffffffffff1681565b6060600080548060200260200160405190810160405280929190818152602001828054801561033757602002820191906000526020600020905b8160009054906101000a900473ffffffffffffffffffffffffffffffffffffffff1673ffffffffffffffffffffffffffffffffffffffff16815260200190600101908083116102ed575b5050505050905090565b3373ffffffffffffffffffffffffffffffffffffffff16600160009054906101000a900473ffffffffffffffffffffffffffffffffffffffff1673ffffffffffffffffffffffffffffffffffffffff16146103d1576040517f08c379a00000000000000000000000000000000000000000000000000000000081526004016103c89061092b565b60405180910390fd5b6003600080549050101561041a576040517f08c379a000000000000000000000000000000000000000000000000000000000815260040161041190610997565b60405180910390fd5b60006104246105b3565b9050600080805490508261043891906109e6565b90506000818154811061044e5761044d610a17565b5b9060005260206000200160009054906101000a900473ffffffffffffffffffffffffffffffffffffffff16600260006101000a81548173ffffffffffffffffffffffffffffffffffffffff021916908373ffffffffffffffffffffffffffffffffffffffff160217905550600260009054906101000a900473ffffffffffffffffffffffffffffffffffffffff1673ffffffffffffffffffffffffffffffffffffffff166108fc6104fd6101dc565b9081150290604051600060405180830381858888f19350505050158015610528573d6000803e3d6000fd5b50600067ffffffffffffffff81111561054457610543610a46565b5b6040519080825280602002602001820160405280156105725781602001602082028036833780820191505090505b50600090805190602001906105889291906105ed565b505050565b600260009054906101000a900473ffffffffffffffffffffffffffffffffffffffff1681565b600044426000805490506040516020016105cf93929190610a96565b6040516020818303038152906040528051906020012060001c905090565b828054828255906000526020600020908101928215610666579160200282015b828111156106655782518260006101000a81548173ffffffffffffffffffffffffffffffffffffffff021916908373ffffffffffffffffffffffffffffffffffffffff1602179055509160200191906001019061060d565b5b5090506106739190610677565b5090565b5b80821115610690576000816000905550600101610678565b5090565b600082825260208201905092915050565b7f53656e64206174206c656173742031206574686572206f6e6c79000000000000600082015250565b60006106db601a83610694565b91506106e6826106a5565b602082019050919050565b6000602082019050818103600083015261070a816106ce565b9050919050565b6000819050919050565b61072481610711565b82525050565b600060208201905061073f600083018461071b565b92915050565b600080fd5b61075381610711565b811461075e57600080fd5b50565b6000813590506107708161074a565b92915050565b60006020828403121561078c5761078b610745565b5b600061079a84828501610761565b91505092915050565b600073ffffffffffffffffffffffffffffffffffffffff82169050919050565b60006107ce826107a3565b9050919050565b6107de816107c3565b82525050565b60006020820190506107f960008301846107d5565b92915050565b600081519050919050565b600082825260208201905092915050565b6000819050602082019050919050565b610834816107c3565b82525050565b6000610846838361082b565b60208301905092915050565b6000602082019050919050565b600061086a826107ff565b610874818561080a565b935061087f8361081b565b8060005b838110156108b0578151610897888261083a565b97506108a283610852565b925050600181019050610883565b5085935050505092915050565b600060208201905081810360008301526108d7818461085f565b905092915050565b7f4f6e6c79206f776e657220686176652061636365737300000000000000000000600082015250565b6000610915601683610694565b9150610920826108df565b602082019050919050565b6000602082019050818103600083015261094481610908565b9050919050565b7f496e73756666696369656e74207061727469636970616e747300000000000000600082015250565b6000610981601983610694565b915061098c8261094b565b602082019050919050565b600060208201905081810360008301526109b081610974565b9050919050565b7f4e487b7100000000000000000000000000000000000000000000000000000000600052601260045260246000fd5b60006109f182610711565b91506109fc83610711565b925082610a0c57610a0b6109b7565b5b828206905092915050565b7f4e487b7100000000000000000000000000000000000000000000000000000000600052603260045260246000fd5b7f4e487b7100000000000000000000000000000000000000000000000000000000600052604160045260246000fd5b6000819050919050565b610a90610a8b82610711565b610a75565b82525050565b6000610aa28286610a7f565b602082019150610ab28285610a7f565b602082019150610ac28284610a7f565b60208201915081905094935050505056fea2646970667358221220aa31a98786af0109b2b1c975dda6eadbc0b4e2bff7833d344bbc988190c4894064736f6c634300080b0033",
  "immutableReferences": {},
  "source": "//SPDX-License-Identifier: GPL-3.0\n\npragma solidity >=0.5.0 <0.9.0;\n\ncontract Lottery{\n    address payable[] public participants;\n    address manager;\n    address payable public winner;\n\n constructor()\n    {\n        manager=msg.sender; //global variable. this will assign the address \n        //of the account that deploys the contract to the manager variable.\n    }\n\n    receive() external payable{\n        require(msg.value ==1 ether, \"Send at least 1 ether only\");\n        participants.push(payable(msg.sender));\n    }\n\n    function getBalance() public view returns(uint){\n        require(manager == msg.sender,\"Only owner have access\");\n        return address(this).balance;\n    }\n\n//get a random number\n    function random() internal view returns(uint){\n        return uint(keccak256(abi.encodePacked(block.difficulty,block.timestamp,participants.length)));\n    }\n\n    function getWinner() public {\n        require(manager==msg.sender,\"Only owner have access\");\n        require(participants.length>=3, \"Insufficient participants\");\n\n        uint win  = random();\n//take the remainder by deviding with the participants number so that get the index number in range\n        uint index = win%participants.length;\n        winner = participants[index];//select participants of that indexx as winner\n        winner.transfer(getBalance());//transfer the contract balance to winner\n        participants = new address payable[](0);//delete all the participants\n    }\n\n    function allParticipants() public view returns(address payable[] memory){\n        return participants;\n    }\n\n\n}",
  "sourcePath": "/Users/shekhshihabuddin/Desktop/my_lottery_dapp/Code/truffleapp/contracts/Lottery.sol",
  "compiler": {
    "name": "solc",
    "version": "0.8.11+commit.d7f03943.Emscripten.clang"
  },
  "schemaVersion": "3.4.14",
  "updatedAt": "2023-05-25T20:08:36.326Z",
  "networkType": "ethereum",
  "devdoc": {
    "kind": "dev",
    "methods": {},
    "version": 1
  },
  "userdoc": {
    "kind": "user",
    "methods": {},
    "version": 1
  }
}